{
  "_format": "hh-sol-artifact-1",
  "contractName": "OrderBook",
  "sourceName": "contracts/OrderBook.sol",
  "abi": [
    {
      "inputs": [
        {
          "internalType": "address",
          "name": "_usdcAddress",
          "type": "address"
        }
      ],
      "stateMutability": "nonpayable",
      "type": "constructor"
    },
    {
      "anonymous": false,
      "inputs": [
        {
          "indexed": true,
          "internalType": "address",
          "name": "assetId",
          "type": "address"
        },
        {
          "indexed": false,
          "internalType": "uint32",
          "name": "decimal",
          "type": "uint32"
        }
      ],
      "name": "MarketCreateEvent",
      "type": "event"
    },
    {
      "anonymous": false,
      "inputs": [
        {
          "indexed": true,
          "internalType": "bytes32",
          "name": "id",
          "type": "bytes32"
        },
        {
          "indexed": true,
          "internalType": "address",
          "name": "trader",
          "type": "address"
        },
        {
          "indexed": true,
          "internalType": "address",
          "name": "baseToken",
          "type": "address"
        },
        {
          "indexed": false,
          "internalType": "int256",
          "name": "baseSize",
          "type": "int256"
        },
        {
          "indexed": false,
          "internalType": "uint256",
          "name": "orderPrice",
          "type": "uint256"
        }
      ],
      "name": "OrderChangeEvent",
      "type": "event"
    },
    {
      "anonymous": false,
      "inputs": [
        {
          "indexed": true,
          "internalType": "address",
          "name": "baseToken",
          "type": "address"
        },
        {
          "indexed": true,
          "internalType": "address",
          "name": "matcher",
          "type": "address"
        },
        {
          "indexed": false,
          "internalType": "uint256",
          "name": "tradeAmount",
          "type": "uint256"
        },
        {
          "indexed": false,
          "internalType": "uint256",
          "name": "price",
          "type": "uint256"
        }
      ],
      "name": "TradeEvent",
      "type": "event"
    },
    {
      "inputs": [],
      "name": "USDC_ADDRESS",
      "outputs": [
        {
          "internalType": "address",
          "name": "",
          "type": "address"
        }
      ],
      "stateMutability": "view",
      "type": "function"
    },
    {
      "inputs": [
        {
          "internalType": "address",
          "name": "assetId",
          "type": "address"
        },
        {
          "internalType": "uint32",
          "name": "decimal",
          "type": "uint32"
        }
      ],
      "name": "createMarket",
      "outputs": [],
      "stateMutability": "nonpayable",
      "type": "function"
    },
    {
      "inputs": [
        {
          "internalType": "address",
          "name": "",
          "type": "address"
        }
      ],
      "name": "markets",
      "outputs": [
        {
          "internalType": "address",
          "name": "assetId",
          "type": "address"
        },
        {
          "internalType": "uint32",
          "name": "decimal",
          "type": "uint32"
        }
      ],
      "stateMutability": "view",
      "type": "function"
    },
    {
      "inputs": [
        {
          "internalType": "bytes32",
          "name": "orderSellId",
          "type": "bytes32"
        },
        {
          "internalType": "bytes32",
          "name": "orderBuyId",
          "type": "bytes32"
        }
      ],
      "name": "matchOrders",
      "outputs": [],
      "stateMutability": "nonpayable",
      "type": "function"
    },
    {
      "inputs": [
        {
          "internalType": "address",
          "name": "baseToken",
          "type": "address"
        },
        {
          "internalType": "int256",
          "name": "baseSize",
          "type": "int256"
        },
        {
          "internalType": "uint256",
          "name": "orderPrice",
          "type": "uint256"
        }
      ],
      "name": "openOrder",
      "outputs": [],
      "stateMutability": "nonpayable",
      "type": "function"
    },
    {
      "inputs": [
        {
          "internalType": "bytes32",
          "name": "",
          "type": "bytes32"
        }
      ],
      "name": "orders",
      "outputs": [
        {
          "internalType": "bytes32",
          "name": "id",
          "type": "bytes32"
        },
        {
          "internalType": "address",
          "name": "trader",
          "type": "address"
        },
        {
          "internalType": "address",
          "name": "baseToken",
          "type": "address"
        },
        {
          "internalType": "int256",
          "name": "baseSize",
          "type": "int256"
        },
        {
          "internalType": "uint256",
          "name": "orderPrice",
          "type": "uint256"
        }
      ],
      "stateMutability": "view",
      "type": "function"
    },
    {
      "inputs": [
        {
          "internalType": "address",
          "name": "",
          "type": "address"
        },
        {
          "internalType": "uint256",
          "name": "",
          "type": "uint256"
        }
      ],
      "name": "ordersByTrader",
      "outputs": [
        {
          "internalType": "bytes32",
          "name": "",
          "type": "bytes32"
        }
      ],
      "stateMutability": "view",
      "type": "function"
    },
    {
      "inputs": [
        {
          "internalType": "bytes32",
          "name": "orderId",
          "type": "bytes32"
        }
      ],
      "name": "removeOrder",
      "outputs": [],
      "stateMutability": "nonpayable",
      "type": "function"
    }
  ],
  "bytecode": "0x60806040523480156200001157600080fd5b5060405162002c2838038062002c288339818101604052810190620000379190620000e8565b806000806101000a81548173ffffffffffffffffffffffffffffffffffffffff021916908373ffffffffffffffffffffffffffffffffffffffff160217905550506200011a565b600080fd5b600073ffffffffffffffffffffffffffffffffffffffff82169050919050565b6000620000b08262000083565b9050919050565b620000c281620000a3565b8114620000ce57600080fd5b50565b600081519050620000e281620000b7565b92915050565b6000602082840312156200010157620001006200007e565b5b60006200011184828501620000d1565b91505092915050565b612afe806200012a6000396000f3fe608060405234801561001057600080fd5b50600436106100885760003560e01c80639c3f1e901161005b5780639c3f1e9014610126578063bb09d9b71461015a578063bbb9506f14610178578063fde996681461019457610088565b80634f268c1f1461008d57806360030c50146100bd5780637fe3826e146100d95780638e8f294b146100f5575b600080fd5b6100a760048036038101906100a29190611d84565b6101b0565b6040516100b49190611ddd565b60405180910390f35b6100d760048036038101906100d29190611e2e565b6101e1565b005b6100f360048036038101906100ee9190611ead565b610b85565b005b61010f600480360381019061010a9190611eed565b6110ce565b60405161011d929190611f48565b60405180910390f35b610140600480360381019061013b9190611f71565b611122565b604051610151959493929190611fbc565b60405180910390f35b610162611198565b60405161016f919061200f565b60405180910390f35b610192600480360381019061018d9190612056565b6111bc565b005b6101ae60048036038101906101a99190611f71565b611432565b005b600360205281600052604060002081815481106101cc57600080fd5b90600052602060002001600091509150505481565b600460009054906101000a900460ff1615610231576040517f08c379a0000000000000000000000000000000000000000000000000000000008152600401610228906120f3565b60405180910390fd5b6001600460006101000a81548160ff0219169083151502179055506000811161028f576040517f08c379a00000000000000000000000000000000000000000000000000000000081526004016102869061215f565b60405180910390fd5b600082121561036a5760006102a383611917565b90508373ffffffffffffffffffffffffffffffffffffffff166323b872dd3330846040518463ffffffff1660e01b81526004016102e29392919061217f565b6020604051808303816000875af1158015610301573d6000803e3d6000fd5b505050506040513d601f19601f8201168201806040525081019061032591906121ee565b610364576040517f08c379a000000000000000000000000000000000000000000000000000000000815260040161035b90612267565b60405180910390fd5b506104f0565b600060066009600260008773ffffffffffffffffffffffffffffffffffffffff1673ffffffffffffffffffffffffffffffffffffffff16815260200190815260200160002060000160149054906101000a900463ffffffff166103cd91906122b6565b6103d791906122ee565b63ffffffff16600a6103e99190612459565b9050600081836103f886611917565b61040291906124a4565b61040c9190612515565b905060008054906101000a900473ffffffffffffffffffffffffffffffffffffffff1673ffffffffffffffffffffffffffffffffffffffff166323b872dd3330846040518463ffffffff1660e01b815260040161046b9392919061217f565b6020604051808303816000875af115801561048a573d6000803e3d6000fd5b505050506040513d601f19601f820116820180604052508101906104ae91906121ee565b6104ed576040517f08c379a00000000000000000000000000000000000000000000000000000000081526004016104e490612267565b60405180910390fd5b50505b60006104fd33858461193b565b90506000600160008381526020019081526020016000209050600073ffffffffffffffffffffffffffffffffffffffff168160010160009054906101000a900473ffffffffffffffffffffffffffffffffffffffff1673ffffffffffffffffffffffffffffffffffffffff16146109795760008482600301546105809190612546565b12156107cf578473ffffffffffffffffffffffffffffffffffffffff1663a9059cbb336105ac87611917565b6040518363ffffffff1660e01b81526004016105c99291906125be565b6020604051808303816000875af11580156105e8573d6000803e3d6000fd5b505050506040513d601f19601f8201168201806040525081019061060c91906121ee565b61064b576040517f08c379a000000000000000000000000000000000000000000000000000000000815260040161064290612267565b60405180910390fd5b600060066009600260008973ffffffffffffffffffffffffffffffffffffffff1673ffffffffffffffffffffffffffffffffffffffff16815260200190815260200160002060000160149054906101000a900463ffffffff166106ae91906122b6565b6106b891906122ee565b63ffffffff16600a6106ca9190612459565b9050600081856106d988611917565b6106e391906124a4565b6106ed9190612515565b905060008054906101000a900473ffffffffffffffffffffffffffffffffffffffff1673ffffffffffffffffffffffffffffffffffffffff1663a9059cbb33836040518363ffffffff1660e01b815260040161074a9291906125be565b6020604051808303816000875af1158015610769573d6000803e3d6000fd5b505050506040513d601f19601f8201168201806040525081019061078d91906121ee565b6107cc576040517f08c379a00000000000000000000000000000000000000000000000000000000081526004016107c390612267565b60405180910390fd5b50505b838160030160008282546107e391906125e7565b9250508190555060008160030154146108fe578060016000848152602001908152602001600020600082015481600001556001820160009054906101000a900473ffffffffffffffffffffffffffffffffffffffff168160010160006101000a81548173ffffffffffffffffffffffffffffffffffffffff021916908373ffffffffffffffffffffffffffffffffffffffff1602179055506002820160009054906101000a900473ffffffffffffffffffffffffffffffffffffffff168160020160006101000a81548173ffffffffffffffffffffffffffffffffffffffff021916908373ffffffffffffffffffffffffffffffffffffffff1602179055506003820154816003015560048201548160040155905050610908565b61090782611971565b5b8473ffffffffffffffffffffffffffffffffffffffff163373ffffffffffffffffffffffffffffffffffffffff16837f723705212273a21c7c00729d862b302b9d93d778268684b180f1cf9a4043346284600301548760405161096c92919061262b565b60405180910390a4610b63565b60006040518060a001604052808481526020013373ffffffffffffffffffffffffffffffffffffffff1681526020018773ffffffffffffffffffffffffffffffffffffffff16815260200186815260200185815250905080600160008581526020019081526020016000206000820151816000015560208201518160010160006101000a81548173ffffffffffffffffffffffffffffffffffffffff021916908373ffffffffffffffffffffffffffffffffffffffff16021790555060408201518160020160006101000a81548173ffffffffffffffffffffffffffffffffffffffff021916908373ffffffffffffffffffffffffffffffffffffffff1602179055506060820151816003015560808201518160040155905050600360003373ffffffffffffffffffffffffffffffffffffffff1673ffffffffffffffffffffffffffffffffffffffff1681526020019081526020016000208390806001815401808255809150506001900390600052602060002001600090919091909150558573ffffffffffffffffffffffffffffffffffffffff163373ffffffffffffffffffffffffffffffffffffffff16847f723705212273a21c7c00729d862b302b9d93d778268684b180f1cf9a404334628888604051610b5992919061262b565b60405180910390a4505b50506000600460006101000a81548160ff021916908315150217905550505050565b600460009054906101000a900460ff1615610bd5576040517f08c379a0000000000000000000000000000000000000000000000000000000008152600401610bcc906120f3565b60405180910390fd5b6001600460006101000a81548160ff0219169083151502179055506000600160008481526020019081526020016000209050600060016000848152602001908152602001600020905060008260030154128015610c3757506000816003015412155b610c76576040517f08c379a0000000000000000000000000000000000000000000000000000000008152600401610c6d906126c6565b60405180910390fd5b8060020160009054906101000a900473ffffffffffffffffffffffffffffffffffffffff1673ffffffffffffffffffffffffffffffffffffffff168260020160009054906101000a900473ffffffffffffffffffffffffffffffffffffffff1673ffffffffffffffffffffffffffffffffffffffff16148015610d0157508060040154826004015411155b610d40576040517f08c379a0000000000000000000000000000000000000000000000000000000008152600401610d3790612732565b60405180910390fd5b6000610d64610d528460030154611917565b610d5f8460030154611917565b611bc5565b905060008360020160009054906101000a900473ffffffffffffffffffffffffffffffffffffffff169050600060066009600260008573ffffffffffffffffffffffffffffffffffffffff1673ffffffffffffffffffffffffffffffffffffffff16815260200190815260200160002060000160149054906101000a900463ffffffff16610df291906122b6565b610dfc91906122ee565b63ffffffff16600a610e0e9190612459565b90506000818660040154610e2186611917565b610e2b91906124a4565b610e359190612515565b90508273ffffffffffffffffffffffffffffffffffffffff1663a9059cbb8660010160009054906101000a900473ffffffffffffffffffffffffffffffffffffffff16866040518363ffffffff1660e01b8152600401610e969291906125be565b6020604051808303816000875af1158015610eb5573d6000803e3d6000fd5b505050506040513d601f19601f82011682018060405250810190610ed991906121ee565b610f18576040517f08c379a0000000000000000000000000000000000000000000000000000000008152600401610f0f90612267565b60405180910390fd5b610f2b8785610f2690612752565b611be1565b60008054906101000a900473ffffffffffffffffffffffffffffffffffffffff1673ffffffffffffffffffffffffffffffffffffffff1663a9059cbb8760010160009054906101000a900473ffffffffffffffffffffffffffffffffffffffff16836040518363ffffffff1660e01b8152600401610faa9291906125be565b6020604051808303816000875af1158015610fc9573d6000803e3d6000fd5b505050506040513d601f19601f82011682018060405250810190610fed91906121ee565b61102c576040517f08c379a000000000000000000000000000000000000000000000000000000000815260040161102390612267565b60405180910390fd5b6110368885611be1565b3373ffffffffffffffffffffffffffffffffffffffff168373ffffffffffffffffffffffffffffffffffffffff167f2cbc4578fec4be74d3041fdc355b92dd7a51860ee68cc692c3e8c8d1f1a1636c61108e87611917565b89600401546040516110a192919061279a565b60405180910390a35050505050506000600460006101000a81548160ff0219169083151502179055505050565b60026020528060005260406000206000915090508060000160009054906101000a900473ffffffffffffffffffffffffffffffffffffffff16908060000160149054906101000a900463ffffffff16905082565b60016020528060005260406000206000915090508060000154908060010160009054906101000a900473ffffffffffffffffffffffffffffffffffffffff16908060020160009054906101000a900473ffffffffffffffffffffffffffffffffffffffff16908060030154908060040154905085565b60008054906101000a900473ffffffffffffffffffffffffffffffffffffffff1681565b600073ffffffffffffffffffffffffffffffffffffffff16600260008473ffffffffffffffffffffffffffffffffffffffff1673ffffffffffffffffffffffffffffffffffffffff16815260200190815260200160002060000160009054906101000a900473ffffffffffffffffffffffffffffffffffffffff1673ffffffffffffffffffffffffffffffffffffffff1614806112b257506000600260008473ffffffffffffffffffffffffffffffffffffffff1673ffffffffffffffffffffffffffffffffffffffff16815260200190815260200160002060000160149054906101000a900463ffffffff1663ffffffff1614155b6112f1576040517f08c379a00000000000000000000000000000000000000000000000000000000081526004016112e890612835565b60405180910390fd5b600060405180604001604052808473ffffffffffffffffffffffffffffffffffffffff1681526020018363ffffffff16815250905080600260008573ffffffffffffffffffffffffffffffffffffffff1673ffffffffffffffffffffffffffffffffffffffff16815260200190815260200160002060008201518160000160006101000a81548173ffffffffffffffffffffffffffffffffffffffff021916908373ffffffffffffffffffffffffffffffffffffffff16021790555060208201518160000160146101000a81548163ffffffff021916908363ffffffff160217905550905050806000015173ffffffffffffffffffffffffffffffffffffffff167fa98af697f39710e2d06dfec763728bb3dd5e6711c2234940c9c9c2b2c077c03b82602001516040516114259190612855565b60405180910390a2505050565b600460009054906101000a900460ff1615611482576040517f08c379a0000000000000000000000000000000000000000000000000000000008152600401611479906120f3565b60405180910390fd5b6001600460006101000a81548160ff02191690831515021790555060006001600083815260200190815260200160002090503373ffffffffffffffffffffffffffffffffffffffff168160010160009054906101000a900473ffffffffffffffffffffffffffffffffffffffff1673ffffffffffffffffffffffffffffffffffffffff1614611546576040517f08c379a000000000000000000000000000000000000000000000000000000000815260040161153d906128bc565b60405180910390fd5b60006115558260030154611917565b905060008260030154121561166e578160020160009054906101000a900473ffffffffffffffffffffffffffffffffffffffff1673ffffffffffffffffffffffffffffffffffffffff1663a9059cbb8360010160009054906101000a900473ffffffffffffffffffffffffffffffffffffffff16836040518363ffffffff1660e01b81526004016115e79291906125be565b6020604051808303816000875af1158015611606573d6000803e3d6000fd5b505050506040513d601f19601f8201168201806040525081019061162a91906121ee565b611669576040517f08c379a000000000000000000000000000000000000000000000000000000000815260040161166090612267565b60405180910390fd5b611836565b600060066009600260008660020160009054906101000a900473ffffffffffffffffffffffffffffffffffffffff1673ffffffffffffffffffffffffffffffffffffffff1673ffffffffffffffffffffffffffffffffffffffff16815260200190815260200160002060000160149054906101000a900463ffffffff166116f591906122b6565b6116ff91906122ee565b63ffffffff16600a6117119190612459565b905060008184600401548461172691906124a4565b6117309190612515565b905060008054906101000a900473ffffffffffffffffffffffffffffffffffffffff1673ffffffffffffffffffffffffffffffffffffffff1663a9059cbb8560010160009054906101000a900473ffffffffffffffffffffffffffffffffffffffff16836040518363ffffffff1660e01b81526004016117b19291906125be565b6020604051808303816000875af11580156117d0573d6000803e3d6000fd5b505050506040513d601f19601f820116820180604052508101906117f491906121ee565b611833576040517f08c379a000000000000000000000000000000000000000000000000000000000815260040161182a90612267565b60405180910390fd5b50505b61183f83611971565b8160020160009054906101000a900473ffffffffffffffffffffffffffffffffffffffff1673ffffffffffffffffffffffffffffffffffffffff168260010160009054906101000a900473ffffffffffffffffffffffffffffffffffffffff1673ffffffffffffffffffffffffffffffffffffffff16847f723705212273a21c7c00729d862b302b9d93d778268684b180f1cf9a40433462856003015486600401546040516118ef92919061262b565b60405180910390a450506000600460006101000a81548160ff02191690831515021790555050565b600080821215611932578161192b90612752565b9050611936565b8190505b919050565b600083838360405160200161195293929190612945565b6040516020818303038152906040528051906020012090509392505050565b6000600160008381526020019081526020016000209050600073ffffffffffffffffffffffffffffffffffffffff168160010160009054906101000a900473ffffffffffffffffffffffffffffffffffffffff1673ffffffffffffffffffffffffffffffffffffffff1603611a1b576040517f08c379a0000000000000000000000000000000000000000000000000000000008152600401611a12906129ce565b60405180910390fd5b6000600360008360010160009054906101000a900473ffffffffffffffffffffffffffffffffffffffff1673ffffffffffffffffffffffffffffffffffffffff1673ffffffffffffffffffffffffffffffffffffffff168152602001908152602001600020905060005b8180549050811015611b435783828281548110611aa557611aa46129ee565b5b906000526020600020015403611b30578160018380549050611ac79190612a1d565b81548110611ad857611ad76129ee565b5b9060005260206000200154828281548110611af657611af56129ee565b5b906000526020600020018190555081805480611b1557611b14612a51565b5b60019003818190600052602060002001600090559055611b43565b8080611b3b90612a80565b915050611a85565b50600160008481526020019081526020016000206000808201600090556001820160006101000a81549073ffffffffffffffffffffffffffffffffffffffff02191690556002820160006101000a81549073ffffffffffffffffffffffffffffffffffffffff0219169055600382016000905560048201600090555050505050565b600081831215611bd757829050611bdb565b8190505b92915050565b60006001600084815260200190815260200160002090506000828260030154611c0a91906125e7565b9050600a811215611c275760009050611c2284611971565b611c31565b8082600301819055505b8160020160009054906101000a900473ffffffffffffffffffffffffffffffffffffffff1673ffffffffffffffffffffffffffffffffffffffff168260010160009054906101000a900473ffffffffffffffffffffffffffffffffffffffff1673ffffffffffffffffffffffffffffffffffffffff16857f723705212273a21c7c00729d862b302b9d93d778268684b180f1cf9a40433462848660040154604051611cdd92919061262b565b60405180910390a450505050565b600080fd5b600073ffffffffffffffffffffffffffffffffffffffff82169050919050565b6000611d1b82611cf0565b9050919050565b611d2b81611d10565b8114611d3657600080fd5b50565b600081359050611d4881611d22565b92915050565b6000819050919050565b611d6181611d4e565b8114611d6c57600080fd5b50565b600081359050611d7e81611d58565b92915050565b60008060408385031215611d9b57611d9a611ceb565b5b6000611da985828601611d39565b9250506020611dba85828601611d6f565b9150509250929050565b6000819050919050565b611dd781611dc4565b82525050565b6000602082019050611df26000830184611dce565b92915050565b6000819050919050565b611e0b81611df8565b8114611e1657600080fd5b50565b600081359050611e2881611e02565b92915050565b600080600060608486031215611e4757611e46611ceb565b5b6000611e5586828701611d39565b9350506020611e6686828701611e19565b9250506040611e7786828701611d6f565b9150509250925092565b611e8a81611dc4565b8114611e9557600080fd5b50565b600081359050611ea781611e81565b92915050565b60008060408385031215611ec457611ec3611ceb565b5b6000611ed285828601611e98565b9250506020611ee385828601611e98565b9150509250929050565b600060208284031215611f0357611f02611ceb565b5b6000611f1184828501611d39565b91505092915050565b611f2381611d10565b82525050565b600063ffffffff82169050919050565b611f4281611f29565b82525050565b6000604082019050611f5d6000830185611f1a565b611f6a6020830184611f39565b9392505050565b600060208284031215611f8757611f86611ceb565b5b6000611f9584828501611e98565b91505092915050565b611fa781611df8565b82525050565b611fb681611d4e565b82525050565b600060a082019050611fd16000830188611dce565b611fde6020830187611f1a565b611feb6040830186611f1a565b611ff86060830185611f9e565b6120056080830184611fad565b9695505050505050565b60006020820190506120246000830184611f1a565b92915050565b61203381611f29565b811461203e57600080fd5b50565b6000813590506120508161202a565b92915050565b6000806040838503121561206d5761206c611ceb565b5b600061207b85828601611d39565b925050602061208c85828601612041565b9150509250929050565b600082825260208201905092915050565b7f4e6f207265656e7472616e637900000000000000000000000000000000000000600082015250565b60006120dd600d83612096565b91506120e8826120a7565b602082019050919050565b6000602082019050818103600083015261210c816120d0565b9050919050565b7f496e76616c6964206f7264657220707269636500000000000000000000000000600082015250565b6000612149601383612096565b915061215482612113565b602082019050919050565b600060208201905081810360008301526121788161213c565b9050919050565b60006060820190506121946000830186611f1a565b6121a16020830185611f1a565b6121ae6040830184611fad565b949350505050565b60008115159050919050565b6121cb816121b6565b81146121d657600080fd5b50565b6000815190506121e8816121c2565b92915050565b60006020828403121561220457612203611ceb565b5b6000612212848285016121d9565b91505092915050565b7f5472616e73666572206661696c65640000000000000000000000000000000000600082015250565b6000612251600f83612096565b915061225c8261221b565b602082019050919050565b6000602082019050818103600083015261228081612244565b9050919050565b7f4e487b7100000000000000000000000000000000000000000000000000000000600052601160045260246000fd5b60006122c182611f29565b91506122cc83611f29565b9250828201905063ffffffff8111156122e8576122e7612287565b5b92915050565b60006122f982611f29565b915061230483611f29565b9250828203905063ffffffff8111156123205761231f612287565b5b92915050565b60008160011c9050919050565b6000808291508390505b600185111561237d5780860481111561235957612358612287565b5b60018516156123685780820291505b808102905061237685612326565b945061233d565b94509492505050565b6000826123965760019050612452565b816123a45760009050612452565b81600181146123ba57600281146123c4576123f3565b6001915050612452565b60ff8411156123d6576123d5612287565b5b8360020a9150848211156123ed576123ec612287565b5b50612452565b5060208310610133831016604e8410600b84101617156124285782820a90508381111561242357612422612287565b5b612452565b6124358484846001612333565b9250905081840481111561244c5761244b612287565b5b81810290505b9392505050565b600061246482611d4e565b915061246f83611d4e565b925061249c7fffffffffffffffffffffffffffffffffffffffffffffffffffffffffffffffff8484612386565b905092915050565b60006124af82611d4e565b91506124ba83611d4e565b92508282026124c881611d4e565b915082820484148315176124df576124de612287565b5b5092915050565b7f4e487b7100000000000000000000000000000000000000000000000000000000600052601260045260246000fd5b600061252082611d4e565b915061252b83611d4e565b92508261253b5761253a6124e6565b5b828204905092915050565b600061255182611df8565b915061255c83611df8565b925082820261256a81611df8565b91507f800000000000000000000000000000000000000000000000000000000000000084146000841216156125a2576125a1612287565b5b82820584148315176125b7576125b6612287565b5b5092915050565b60006040820190506125d36000830185611f1a565b6125e06020830184611fad565b9392505050565b60006125f282611df8565b91506125fd83611df8565b92508282019050828112156000831216838212600084121516171561262557612624612287565b5b92915050565b60006040820190506126406000830185611f9e565b61264d6020830184611fad565b9392505050565b7f466972737420617267756d656e742073686f756c64206265206f72646572536560008201527f6c6c2c207365636f6e64206f7264657242757900000000000000000000000000602082015250565b60006126b0603383612096565b91506126bb82612654565b604082019050919050565b600060208201905081810360008301526126df816126a3565b9050919050565b7f4f72646572732063616e2774206265206d617463686564000000000000000000600082015250565b600061271c601783612096565b9150612727826126e6565b602082019050919050565b6000602082019050818103600083015261274b8161270f565b9050919050565b600061275d82611df8565b91507f8000000000000000000000000000000000000000000000000000000000000000820361278f5761278e612287565b5b816000039050919050565b60006040820190506127af6000830185611fad565b6127bc6020830184611fad565b9392505050565b7f4d61726b657420616c726561647920657869737473206f7220756e696e69746960008201527f616c697a65640000000000000000000000000000000000000000000000000000602082015250565b600061281f602683612096565b915061282a826127c3565b604082019050919050565b6000602082019050818103600083015261284e81612812565b9050919050565b600060208201905061286a6000830184611f39565b92915050565b7f4163636573732044656e69656400000000000000000000000000000000000000600082015250565b60006128a6600d83612096565b91506128b182612870565b602082019050919050565b600060208201905081810360008301526128d581612899565b9050919050565b60008160601b9050919050565b60006128f4826128dc565b9050919050565b6000612906826128e9565b9050919050565b61291e61291982611d10565b6128fb565b82525050565b6000819050919050565b61293f61293a82611d4e565b612924565b82525050565b6000612951828661290d565b601482019150612961828561290d565b601482019150612971828461292e565b602082019150819050949350505050565b7f4f7264657220646f6573206e6f74206578697374000000000000000000000000600082015250565b60006129b8601483612096565b91506129c382612982565b602082019050919050565b600060208201905081810360008301526129e7816129ab565b9050919050565b7f4e487b7100000000000000000000000000000000000000000000000000000000600052603260045260246000fd5b6000612a2882611d4e565b9150612a3383611d4e565b9250828203905081811115612a4b57612a4a612287565b5b92915050565b7f4e487b7100000000000000000000000000000000000000000000000000000000600052603160045260246000fd5b6000612a8b82611d4e565b91507fffffffffffffffffffffffffffffffffffffffffffffffffffffffffffffffff8203612abd57612abc612287565b5b60018201905091905056fea2646970667358221220cb56e79af64c008fa5e0ee85654396fda44f9a12a6cf536d0f39616da77a6ea964736f6c63430008140033",
  "linkReferences": {},
  "deployedLinkReferences": {}
}